{
  "contractName": "MyCV",
  "abi": [
    {
      "inputs": [],
      "payable": false,
      "stateMutability": "nonpayable",
      "type": "constructor"
    },
    {
      "constant": false,
      "inputs": [],
      "name": "poke",
      "outputs": [],
      "payable": false,
      "stateMutability": "nonpayable",
      "type": "function"
    },
    {
      "constant": true,
      "inputs": [],
      "name": "getNumPokes",
      "outputs": [
        {
          "internalType": "int256",
          "name": "",
          "type": "int256"
        }
      ],
      "payable": false,
      "stateMutability": "view",
      "type": "function"
    },
    {
      "constant": true,
      "inputs": [],
      "name": "getName",
      "outputs": [
        {
          "internalType": "string",
          "name": "",
          "type": "string"
        }
      ],
      "payable": false,
      "stateMutability": "view",
      "type": "function"
    },
    {
      "constant": true,
      "inputs": [],
      "name": "getSummary",
      "outputs": [
        {
          "internalType": "string",
          "name": "",
          "type": "string"
        }
      ],
      "payable": false,
      "stateMutability": "view",
      "type": "function"
    },
    {
      "constant": false,
      "inputs": [
        {
          "internalType": "string",
          "name": "summ",
          "type": "string"
        }
      ],
      "name": "setSummary",
      "outputs": [],
      "payable": false,
      "stateMutability": "nonpayable",
      "type": "function"
    },
    {
      "constant": false,
      "inputs": [
        {
          "internalType": "string",
          "name": "exp",
          "type": "string"
        }
      ],
      "name": "addExperience",
      "outputs": [],
      "payable": false,
      "stateMutability": "nonpayable",
      "type": "function"
    },
    {
      "constant": true,
      "inputs": [],
      "name": "getNumExperiences",
      "outputs": [
        {
          "internalType": "uint256",
          "name": "",
          "type": "uint256"
        }
      ],
      "payable": false,
      "stateMutability": "view",
      "type": "function"
    },
    {
      "constant": true,
      "inputs": [
        {
          "internalType": "uint8",
          "name": "expId",
          "type": "uint8"
        }
      ],
      "name": "getExperience",
      "outputs": [
        {
          "internalType": "string",
          "name": "",
          "type": "string"
        }
      ],
      "payable": false,
      "stateMutability": "view",
      "type": "function"
    },
    {
      "constant": false,
      "inputs": [
        {
          "internalType": "string",
          "name": "exp",
          "type": "string"
        }
      ],
      "name": "addCourse",
      "outputs": [],
      "payable": false,
      "stateMutability": "nonpayable",
      "type": "function"
    },
    {
      "constant": true,
      "inputs": [],
      "name": "getNumCourses",
      "outputs": [
        {
          "internalType": "uint256",
          "name": "",
          "type": "uint256"
        }
      ],
      "payable": false,
      "stateMutability": "view",
      "type": "function"
    },
    {
      "constant": true,
      "inputs": [
        {
          "internalType": "uint8",
          "name": "expId",
          "type": "uint8"
        }
      ],
      "name": "getCourse",
      "outputs": [
        {
          "internalType": "string",
          "name": "",
          "type": "string"
        }
      ],
      "payable": false,
      "stateMutability": "view",
      "type": "function"
    },
    {
      "constant": false,
      "inputs": [
        {
          "internalType": "string",
          "name": "exp",
          "type": "string"
        }
      ],
      "name": "addCertification",
      "outputs": [],
      "payable": false,
      "stateMutability": "nonpayable",
      "type": "function"
    },
    {
      "constant": true,
      "inputs": [],
      "name": "getNumCertifications",
      "outputs": [
        {
          "internalType": "uint256",
          "name": "",
          "type": "uint256"
        }
      ],
      "payable": false,
      "stateMutability": "view",
      "type": "function"
    },
    {
      "constant": true,
      "inputs": [
        {
          "internalType": "uint8",
          "name": "expId",
          "type": "uint8"
        }
      ],
      "name": "getCertification",
      "outputs": [
        {
          "internalType": "string",
          "name": "",
          "type": "string"
        }
      ],
      "payable": false,
      "stateMutability": "view",
      "type": "function"
    },
    {
      "constant": false,
      "inputs": [],
      "name": "detroyCV",
      "outputs": [],
      "payable": false,
      "stateMutability": "nonpayable",
      "type": "function"
    }
  ],
  "bytecode": "0x60806040526040518060400160405280600e81526020017f4573746562616e204368696e65720000000000000000000000000000000000008152506000908051906020019061004f9291906100a3565b5034801561005c57600080fd5b5033600660006101000a81548173ffffffffffffffffffffffffffffffffffffffff021916908373ffffffffffffffffffffffffffffffffffffffff160217905550610148565b828054600181600116156101000203166002900490600052602060002090601f016020900481019282601f106100e457805160ff1916838001178555610112565b82800160010185558215610112579182015b828111156101115782518255916020019190600101906100f6565b5b50905061011f9190610123565b5090565b61014591905b80821115610141576000816000905550600101610129565b5090565b90565b61111e80620001586000396000f3fe608060405234801561001057600080fd5b50600436106100f55760003560e01c806377a7354d11610097578063e45c5d5511610066578063e45c5d55146105fa578063e5e2cb7414610618578063f3857b5e146106c2578063fbb2405d1461076c576100f5565b806377a7354d1461044857806389514f6e1461050357806393d583dc146105be578063d5aa5a03146105dc576100f5565b80632e554076116100d35780632e554076146101a55780634051ddac146102605780636e94fd9b146102e3578063713138f81461039e576100f5565b806317d7de7c146100fa578063181783581461017d5780631efdaddf14610187575b600080fd5b610102610776565b6040518080602001828103825283818151815260200191508051906020019080838360005b83811015610142578082015181840152602081019050610127565b50505050905090810190601f16801561016f5780820380516001836020036101000a031916815260200191505b509250505060405180910390f35b610185610818565b005b61018f610826565b6040518082815260200191505060405180910390f35b61025e600480360360208110156101bb57600080fd5b81019080803590602001906401000000008111156101d857600080fd5b8201836020820111156101ea57600080fd5b8035906020019184600183028401116401000000008311171561020c57600080fd5b91908080601f016020809104026020016040519081016040528093929190818152602001838380828437600081840152601f19601f820116905080830192505050505050509192919290505050610833565b005b61026861091b565b6040518080602001828103825283818151815260200191508051906020019080838360005b838110156102a857808201518184015260208101905061028d565b50505050905090810190601f1680156102d55780820380516001836020036101000a031916815260200191505b509250505060405180910390f35b61039c600480360360208110156102f957600080fd5b810190808035906020019064010000000081111561031657600080fd5b82018360208201111561032857600080fd5b8035906020019184600183028401116401000000008311171561034a57600080fd5b91908080601f016020809104026020016040519081016040528093929190818152602001838380828437600081840152601f19601f8201169050808301925050505050505091929192905050506109bd565b005b6103cd600480360360208110156103b457600080fd5b81019080803560ff169060200190929190505050610aa5565b6040518080602001828103825283818151815260200191508051906020019080838360005b8381101561040d5780820151818401526020810190506103f2565b50505050905090810190601f16801561043a5780820380516001836020036101000a031916815260200191505b509250505060405180910390f35b6105016004803603602081101561045e57600080fd5b810190808035906020019064010000000081111561047b57600080fd5b82018360208201111561048d57600080fd5b803590602001918460018302840111640100000000831117156104af57600080fd5b91908080601f016020809104026020016040519081016040528093929190818152602001838380828437600081840152601f19601f820116905080830192505050505050509192919290505050610b61565b005b6105bc6004803603602081101561051957600080fd5b810190808035906020019064010000000081111561053657600080fd5b82018360208201111561054857600080fd5b8035906020019184600183028401116401000000008311171561056a57600080fd5b91908080601f016020809104026020016040519081016040528093929190818152602001838380828437600081840152601f19601f820116905080830192505050505050509192919290505050610c49565b005b6105c6610d09565b6040518082815260200191505060405180910390f35b6105e4610d16565b6040518082815260200191505060405180910390f35b610602610d20565b6040518082815260200191505060405180910390f35b6106476004803603602081101561062e57600080fd5b81019080803560ff169060200190929190505050610d2d565b6040518080602001828103825283818151815260200191508051906020019080838360005b8381101561068757808201518184015260208101905061066c565b50505050905090810190601f1680156106b45780820380516001836020036101000a031916815260200191505b509250505060405180910390f35b6106f1600480360360208110156106d857600080fd5b81019080803560ff169060200190929190505050610de9565b6040518080602001828103825283818151815260200191508051906020019080838360005b83811015610731578082015181840152602081019050610716565b50505050905090810190601f16801561075e5780820380516001836020036101000a031916815260200191505b509250505060405180910390f35b610774610ea5565b005b606060008054600181600116156101000203166002900480601f01602080910402602001604051908101604052809291908181526020018280546001816001161561010002031660029004801561080e5780601f106107e35761010080835404028352916020019161080e565b820191906000526020600020905b8154815290600101906020018083116107f157829003601f168201915b5050505050905090565b600160055401600581905550565b6000600480549050905090565b600660009054906101000a900473ffffffffffffffffffffffffffffffffffffffff1673ffffffffffffffffffffffffffffffffffffffff163373ffffffffffffffffffffffffffffffffffffffff16146108d9576040517f08c379a000000000000000000000000000000000000000000000000000000000815260040180806020018281038252602a815260200180611092602a913960400191505060405180910390fd5b6003819080600181540180825580915050906001820390600052602060002001600090919290919091509080519060200190610916929190610f64565b505050565b606060018054600181600116156101000203166002900480601f0160208091040260200160405190810160405280929190818152602001828054600181600116156101000203166002900480156109b35780601f10610988576101008083540402835291602001916109b3565b820191906000526020600020905b81548152906001019060200180831161099657829003601f168201915b5050505050905090565b600660009054906101000a900473ffffffffffffffffffffffffffffffffffffffff1673ffffffffffffffffffffffffffffffffffffffff163373ffffffffffffffffffffffffffffffffffffffff1614610a63576040517f08c379a00000000000000000000000000000000000000000000000000000000081526004018080602001828103825260318152602001806110336031913960400191505060405180910390fd5b6004819080600181540180825580915050906001820390600052602060002001600090919290919091509080519060200190610aa0929190610f64565b505050565b606060048260ff1681548110610ab757fe5b906000526020600020018054600181600116156101000203166002900480601f016020809104026020016040519081016040528092919081815260200182805460018160011615610100020316600290048015610b555780601f10610b2a57610100808354040283529160200191610b55565b820191906000526020600020905b815481529060010190602001808311610b3857829003601f168201915b50505050509050919050565b600660009054906101000a900473ffffffffffffffffffffffffffffffffffffffff1673ffffffffffffffffffffffffffffffffffffffff163373ffffffffffffffffffffffffffffffffffffffff1614610c07576040517f08c379a000000000000000000000000000000000000000000000000000000000815260040180806020018281038252602e815260200180611064602e913960400191505060405180910390fd5b6002819080600181540180825580915050906001820390600052602060002001600090919290919091509080519060200190610c44929190610f64565b505050565b600660009054906101000a900473ffffffffffffffffffffffffffffffffffffffff1673ffffffffffffffffffffffffffffffffffffffff163373ffffffffffffffffffffffffffffffffffffffff1614610cef576040517f08c379a000000000000000000000000000000000000000000000000000000000815260040180806020018281038252602e8152602001806110bc602e913960400191505060405180910390fd5b8060019080519060200190610d05929190610f64565b5050565b6000600280549050905090565b6000600554905090565b6000600380549050905090565b606060038260ff1681548110610d3f57fe5b906000526020600020018054600181600116156101000203166002900480601f016020809104026020016040519081016040528092919081815260200182805460018160011615610100020316600290048015610ddd5780601f10610db257610100808354040283529160200191610ddd565b820191906000526020600020905b815481529060010190602001808311610dc057829003601f168201915b50505050509050919050565b606060028260ff1681548110610dfb57fe5b906000526020600020018054600181600116156101000203166002900480601f016020809104026020016040519081016040528092919081815260200182805460018160011615610100020316600290048015610e995780601f10610e6e57610100808354040283529160200191610e99565b820191906000526020600020905b815481529060010190602001808311610e7c57829003601f168201915b50505050509050919050565b600660009054906101000a900473ffffffffffffffffffffffffffffffffffffffff1673ffffffffffffffffffffffffffffffffffffffff163373ffffffffffffffffffffffffffffffffffffffff1614610f4b576040517f08c379a000000000000000000000000000000000000000000000000000000000815260040180806020018281038252602981526020018061100a6029913960400191505060405180910390fd5b3373ffffffffffffffffffffffffffffffffffffffff16ff5b828054600181600116156101000203166002900490600052602060002090601f016020900481019282601f10610fa557805160ff1916838001178555610fd3565b82800160010185558215610fd3579182015b82811115610fd2578251825591602001919060010190610fb7565b5b509050610fe09190610fe4565b5090565b61100691905b80821115611002576000816000905550600101610fea565b5090565b9056fe4f6e6c7920746865206f776e6572206f6620746869732043562063616e2064657374726f79206974214f6e6c7920746865206f776e6572206f6620746869732043562063616e206164642063657274696669636174696f6e73214f6e6c7920746865206f776e6572206f6620746869732043562063616e2061646420657870657269656e636573214f6e6c7920746865206f776e6572206f6620746869732043562063616e2061646420636f7572736573214f6e6c7920746865206f776e6572206f6620746869732043562063616e20736574207468652073756d6d61727921a265627a7a72315820a0ff4dfa91d1ada7b77b93d9508751bbc38b9ee16a6779d08ec541f316ef696f64736f6c63430005100032",
  "source": "pragma solidity >=0.4.22 <0.8.0;\r\n\r\n/**\r\n * @title My CV\r\n */\r\ncontract MyCV {\r\n    \r\n    // CV Information\r\n    string private name = \"Esteban Chiner\";\r\n    string private summary;\r\n    string[] private experiences;\r\n    string[] private courses;\r\n    string[] private certifications;\r\n\r\n    // Control data\r\n    int private pokeCount;\r\n    address private owner;\r\n    \r\n    constructor () public {\r\n        owner = msg.sender;\r\n    }\r\n\r\n    /**\r\n     * @dev Increase the number of pokes\r\n     */\r\n    function poke() public {\r\n        pokeCount = pokeCount + 1;\r\n    }\r\n\r\n    /**\r\n     * @dev Get the number of getNumPokes\r\n     * @return Number of pokes\r\n     */\r\n    function getNumPokes() public view returns (int) {\r\n        return pokeCount;\r\n    }\r\n\r\n    /**\r\n     * @dev Return value \r\n     * @return A greeting\r\n     */\r\n    function getName() public view returns (string memory) {\r\n        return name;\r\n    }\r\n    \r\n    \r\n    \r\n    function getSummary() public view returns (string memory) {\r\n        return summary;\r\n    }\r\n    \r\n    function setSummary(string memory summ) public {\r\n        require(\r\n            msg.sender == owner,\r\n            \"Only the owner of this CV can set the summary!\"\r\n        );\r\n        summary = summ;\r\n    }\r\n    \r\n    \r\n    \r\n    function addExperience(string memory exp) public  {\r\n        require(\r\n            msg.sender == owner,\r\n            \"Only the owner of this CV can add experiences!\"\r\n        );\r\n        experiences.push(exp);\r\n    }\r\n    \r\n    function getNumExperiences() public view returns (uint) {\r\n        return experiences.length;\r\n    }\r\n\r\n    function getExperience(uint8 expId) public view returns (string memory) {\r\n        return experiences[expId];\r\n    }\r\n    \r\n    \r\n    \r\n    function addCourse(string memory exp) public  {\r\n        require(\r\n            msg.sender == owner,\r\n            \"Only the owner of this CV can add courses!\"\r\n        );\r\n        courses.push(exp);\r\n    }\r\n    \r\n    function getNumCourses() public view returns (uint) {\r\n        return courses.length;\r\n    }\r\n\r\n    function getCourse(uint8 expId) public view returns (string memory) {\r\n        return courses[expId];\r\n    }\r\n\r\n\r\n\r\n    function addCertification(string memory exp) public  {\r\n        require(\r\n            msg.sender == owner,\r\n            \"Only the owner of this CV can add certifications!\"\r\n        );\r\n        certifications.push(exp);\r\n    }\r\n    \r\n    function getNumCertifications() public view returns (uint) {\r\n        return certifications.length;\r\n    }\r\n\r\n    function getCertification(uint8 expId) public view returns (string memory) {\r\n        return certifications[expId];\r\n    }\r\n\r\n    /**\r\n     * @dev Destroys the CV\r\n     */\r\n    function detroyCV() public {\r\n        require(\r\n            msg.sender == owner,\r\n            \"Only the owner of this CV can destroy it!\"\r\n        );\r\n        selfdestruct(msg.sender);\r\n    }\r\n}",
  "sourcePath": "C:/Users/encr/OneDrive - GFT Technologies SE/Documents/Developer/ethereum-smart-contracts/contracts/MyCV.sol",
  "compiler": {
    "name": "solc",
    "version": "0.5.16+commit.9c3226ce.Emscripten.clang"
  },
  "schemaVersion": "3.3.2",
  "updatedAt": "2020-11-14T18:41:58.311Z",
  "networkType": "ethereum",
  "devdoc": {
    "methods": {
      "detroyCV()": {
        "details": "Destroys the CV"
      },
      "getName()": {
        "details": "Return value ",
        "return": "A greeting"
      },
      "getNumPokes()": {
        "details": "Get the number of getNumPokes",
        "return": "Number of pokes"
      },
      "poke()": {
        "details": "Increase the number of pokes"
      }
    },
    "title": "My CV"
  },
  "userdoc": {
    "methods": {}
  }
}