{
  "contractName": "SimpleSmartContract",
  "abi": [
    {
      "constant": false,
      "inputs": [],
      "name": "poke",
      "outputs": [],
      "payable": false,
      "stateMutability": "nonpayable",
      "type": "function"
    },
    {
      "constant": true,
      "inputs": [],
      "name": "getNumPokes",
      "outputs": [
        {
          "internalType": "int256",
          "name": "",
          "type": "int256"
        }
      ],
      "payable": false,
      "stateMutability": "view",
      "type": "function"
    },
    {
      "constant": true,
      "inputs": [],
      "name": "hello",
      "outputs": [
        {
          "internalType": "string",
          "name": "",
          "type": "string"
        }
      ],
      "payable": false,
      "stateMutability": "view",
      "type": "function"
    }
  ],
  "bytecode": "0x60806040526040518060600160405280602f81526020016102d8602f913960019080519060200190610032929190610045565b5034801561003f57600080fd5b506100ea565b828054600181600116156101000203166002900490600052602060002090601f016020900481019282601f1061008657805160ff19168380011785556100b4565b828001600101855582156100b4579182015b828111156100b3578251825591602001919060010190610098565b5b5090506100c191906100c5565b5090565b6100e791905b808211156100e35760008160009055506001016100cb565b5090565b90565b6101df806100f96000396000f3fe608060405234801561001057600080fd5b50600436106100415760003560e01c8063181783581461004657806319ff1d2114610050578063d5aa5a03146100d3575b600080fd5b61004e6100f1565b005b6100586100ff565b6040518080602001828103825283818151815260200191508051906020019080838360005b8381101561009857808201518184015260208101905061007d565b50505050905090810190601f1680156100c55780820380516001836020036101000a031916815260200191505b509250505060405180910390f35b6100db6101a1565b6040518082815260200191505060405180910390f35b600160005401600081905550565b606060018054600181600116156101000203166002900480601f0160208091040260200160405190810160405280929190818152602001828054600181600116156101000203166002900480156101975780601f1061016c57610100808354040283529160200191610197565b820191906000526020600020905b81548152906001019060200180831161017a57829003601f168201915b5050505050905090565b6000805490509056fea265627a7a72315820851dd7d4b06c0e55c36c436f3a544f977bb09cb2df176d1deddea4f8c9a69fe264736f6c63430005100032486920677579732121212057656c636f6d6520746f2074686520426c6f636b636861696e2073657373696f6e212121",
  "source": "pragma solidity >=0.4.22 <0.8.0;\r\n\r\n/**\r\n * @title Blockchain Session\r\n * @dev Store & retreive value in a variable\r\n */\r\ncontract SimpleSmartContract {\r\n\r\n    int pokeCount;\r\n    string greeting = \"Hi guys!!! Welcome to the Blockchain session!!!\";\r\n\r\n    /**\r\n     * @dev Increase the number of pokes\r\n     */\r\n    function poke() public {\r\n        pokeCount = pokeCount + 1;\r\n    }\r\n\r\n    /**\r\n     * @dev Get the number of getNumPokes\r\n     * @return Number of pokes\r\n     */\r\n    function getNumPokes() public view returns (int) {\r\n        return pokeCount;\r\n    }\r\n\r\n    /**\r\n     * @dev Say hi to the class\r\n     * @return A greeting\r\n     */\r\n    function hello() public view returns (string memory) {\r\n        return greeting;\r\n    }\r\n}",
  "sourcePath": "C:/Users/encr/OneDrive - GFT Technologies SE/Documents/Developer/ethereum-smart-contracts/contracts/SimpleSmartContract.sol",
  "compiler": {
    "name": "solc",
    "version": "0.5.16+commit.9c3226ce.Emscripten.clang"
  },
  "schemaVersion": "3.3.2",
  "updatedAt": "2020-11-14T18:43:46.460Z",
  "networkType": "ethereum",
  "devdoc": {
    "details": "Store & retreive value in a variable",
    "methods": {
      "getNumPokes()": {
        "details": "Get the number of getNumPokes",
        "return": "Number of pokes"
      },
      "hello()": {
        "details": "Say hi to the class",
        "return": "A greeting"
      },
      "poke()": {
        "details": "Increase the number of pokes"
      }
    },
    "title": "Blockchain Session"
  },
  "userdoc": {
    "methods": {}
  }
}